{
  "contractName": "TomCoin",
  "abi": [
    {
      "constant": true,
      "inputs": [],
      "name": "totalSupply",
      "outputs": [
        {
          "name": "",
          "type": "uint256"
        }
      ],
      "payable": false,
      "stateMutability": "view",
      "type": "function"
    },
    {
      "constant": true,
      "inputs": [],
      "name": "manager",
      "outputs": [
        {
          "name": "",
          "type": "address"
        }
      ],
      "payable": false,
      "stateMutability": "view",
      "type": "function"
    },
    {
      "constant": true,
      "inputs": [
        {
          "name": "",
          "type": "address"
        }
      ],
      "name": "withdrawals",
      "outputs": [
        {
          "name": "tokens",
          "type": "uint256"
        },
        {
          "name": "time",
          "type": "uint256"
        }
      ],
      "payable": false,
      "stateMutability": "view",
      "type": "function"
    },
    {
      "constant": true,
      "inputs": [],
      "name": "currentPrice",
      "outputs": [
        {
          "name": "numerator",
          "type": "uint256"
        },
        {
          "name": "denominator",
          "type": "uint256"
        }
      ],
      "payable": false,
      "stateMutability": "view",
      "type": "function"
    },
    {
      "constant": true,
      "inputs": [
        {
          "name": "",
          "type": "uint256"
        }
      ],
      "name": "prices",
      "outputs": [
        {
          "name": "numerator",
          "type": "uint256"
        },
        {
          "name": "denominator",
          "type": "uint256"
        }
      ],
      "payable": false,
      "stateMutability": "view",
      "type": "function"
    },
    {
      "inputs": [],
      "payable": false,
      "stateMutability": "nonpayable",
      "type": "constructor"
    },
    {
      "anonymous": false,
      "inputs": [
        {
          "indexed": true,
          "name": "_from",
          "type": "address"
        },
        {
          "indexed": true,
          "name": "_to",
          "type": "address"
        },
        {
          "indexed": false,
          "name": "_value",
          "type": "uint256"
        }
      ],
      "name": "Transfer",
      "type": "event"
    },
    {
      "constant": false,
      "inputs": [
        {
          "name": "receiver",
          "type": "address"
        },
        {
          "name": "amount",
          "type": "uint256"
        }
      ],
      "name": "sendCoin",
      "outputs": [
        {
          "name": "sufficient",
          "type": "bool"
        }
      ],
      "payable": false,
      "stateMutability": "nonpayable",
      "type": "function"
    },
    {
      "constant": true,
      "inputs": [
        {
          "name": "_address",
          "type": "address"
        }
      ],
      "name": "balanceOfInEth",
      "outputs": [
        {
          "name": "",
          "type": "uint256"
        }
      ],
      "payable": false,
      "stateMutability": "view",
      "type": "function"
    },
    {
      "constant": true,
      "inputs": [
        {
          "name": "_address",
          "type": "address"
        }
      ],
      "name": "balanceOf",
      "outputs": [
        {
          "name": "",
          "type": "uint256"
        }
      ],
      "payable": false,
      "stateMutability": "view",
      "type": "function"
    },
    {
      "constant": false,
      "inputs": [
        {
          "name": "_to",
          "type": "address"
        },
        {
          "name": "_value",
          "type": "uint256"
        }
      ],
      "name": "transfer",
      "outputs": [
        {
          "name": "success",
          "type": "bool"
        }
      ],
      "payable": false,
      "stateMutability": "nonpayable",
      "type": "function"
    },
    {
      "constant": false,
      "inputs": [
        {
          "name": "_participant",
          "type": "address"
        },
        {
          "name": "_tokensToWithdraw",
          "type": "uint256"
        }
      ],
      "name": "requestWithdrawal",
      "outputs": [],
      "payable": false,
      "stateMutability": "nonpayable",
      "type": "function"
    },
    {
      "constant": false,
      "inputs": [
        {
          "name": "amountTokensToWithdraw",
          "type": "uint256"
        }
      ],
      "name": "checkEthValue",
      "outputs": [
        {
          "name": "ethervalue",
          "type": "uint256"
        }
      ],
      "payable": false,
      "stateMutability": "nonpayable",
      "type": "function"
    },
    {
      "constant": false,
      "inputs": [
        {
          "name": "participant",
          "type": "address"
        }
      ],
      "name": "withdraw",
      "outputs": [],
      "payable": false,
      "stateMutability": "nonpayable",
      "type": "function"
    }
  ],
  "bytecode": "0x60806040527356c56111f9e7322d9170816a3366781fdf38a0da600260006101000a81548173ffffffffffffffffffffffffffffffffffffffff021916908373ffffffffffffffffffffffffffffffffffffffff16021790555034801561006557600080fd5b50612710600160003273ffffffffffffffffffffffffffffffffffffffff1673ffffffffffffffffffffffffffffffffffffffff168152602001908152602001600020819055506201388060016000600260009054906101000a900473ffffffffffffffffffffffffffffffffffffffff1673ffffffffffffffffffffffffffffffffffffffff1673ffffffffffffffffffffffffffffffffffffffff16815260200190815260200160002081905550610e0f806101246000396000f3006080604052600436106100ba576000357c0100000000000000000000000000000000000000000000000000000000900463ffffffff16806318160ddd146100bf578063481c6a75146100ea57806351cff8d91461014157806370a08231146101845780637a9262a2146101db57806386d7b587146102395780638e945a651461029057806390b98a11146102d15780639d1b464a14610336578063a9059cbb14610368578063bc31c1c1146103cd578063da95ebf714610415575b600080fd5b3480156100cb57600080fd5b506100d4610462565b6040518082815260200191505060405180910390f35b3480156100f657600080fd5b506100ff610468565b604051808273ffffffffffffffffffffffffffffffffffffffff1673ffffffffffffffffffffffffffffffffffffffff16815260200191505060405180910390f35b34801561014d57600080fd5b50610182600480360381019080803573ffffffffffffffffffffffffffffffffffffffff16906020019092919050505061048e565b005b34801561019057600080fd5b506101c5600480360381019080803573ffffffffffffffffffffffffffffffffffffffff1690602001909291905050506105d4565b6040518082815260200191505060405180910390f35b3480156101e757600080fd5b5061021c600480360381019080803573ffffffffffffffffffffffffffffffffffffffff16906020019092919050505061061d565b604051808381526020018281526020019250505060405180910390f35b34801561024557600080fd5b5061027a600480360381019080803573ffffffffffffffffffffffffffffffffffffffff169060200190929190505050610641565b6040518082815260200191505060405180910390f35b34801561029c57600080fd5b506102bb60048036038101908080359060200190929190505050610701565b6040518082815260200191505060405180910390f35b3480156102dd57600080fd5b5061031c600480360381019080803573ffffffffffffffffffffffffffffffffffffffff16906020019092919080359060200190929190505050610745565b604051808215151515815260200191505060405180910390f35b34801561034257600080fd5b5061034b6108a1565b604051808381526020018281526020019250505060405180910390f35b34801561037457600080fd5b506103b3600480360381019080803573ffffffffffffffffffffffffffffffffffffffff169060200190929190803590602001909291905050506108b3565b604051808215151515815260200191505060405180910390f35b3480156103d957600080fd5b506103f860048036038101908080359060200190929190505050610a77565b604051808381526020018281526020019250505060405180910390f35b34801561042157600080fd5b50610460600480360381019080803573ffffffffffffffffffffffffffffffffffffffff16906020019092919080359060200190929190505050610a9b565b005b60005481565b600260009054906101000a900473ffffffffffffffffffffffffffffffffffffffff1681565b6000806000600360008573ffffffffffffffffffffffffffffffffffffffff1673ffffffffffffffffffffffffffffffffffffffff168152602001908152602001600020600001549250600360008573ffffffffffffffffffffffffffffffffffffffff1673ffffffffffffffffffffffffffffffffffffffff16815260200190815260200160002060010154915061052683610701565b90506000600360008673ffffffffffffffffffffffffffffffffffffffff1673ffffffffffffffffffffffffffffffffffffffff1681526020019081526020016000206000018190555080600260009054906101000a900473ffffffffffffffffffffffffffffffffffffffff1673ffffffffffffffffffffffffffffffffffffffff16311015156105c2576105bd848285610c07565b6105ce565b6105cd848285610cdc565b5b50505050565b6000600160008373ffffffffffffffffffffffffffffffffffffffff1673ffffffffffffffffffffffffffffffffffffffff168152602001908152602001600020549050919050565b60036020528060005260406000206000915090508060000154908060010154905082565b600073__ConvertLib____________________________6396e4ee3d610666846105d4565b60026040518363ffffffff167c0100000000000000000000000000000000000000000000000000000000028152600401808381526020018281526020019250505060206040518083038186803b1580156106bf57600080fd5b505af41580156106d3573d6000803e3d6000fd5b505050506040513d60208110156106e957600080fd5b81019080805190602001909291905050509050919050565b6000806002600560000181905550600160056001018190555060056000015461072f84600560010154610d6d565b81151561073857fe5b0490506032915050919050565b600081600160003373ffffffffffffffffffffffffffffffffffffffff1673ffffffffffffffffffffffffffffffffffffffff168152602001908152602001600020541015610797576000905061089b565b81600160003373ffffffffffffffffffffffffffffffffffffffff1673ffffffffffffffffffffffffffffffffffffffff1681526020019081526020016000206000828254039250508190555081600160008573ffffffffffffffffffffffffffffffffffffffff1673ffffffffffffffffffffffffffffffffffffffff168152602001908152602001600020600082825401925050819055508273ffffffffffffffffffffffffffffffffffffffff163373ffffffffffffffffffffffffffffffffffffffff167fddf252ad1be2c89b69c2b068fc378daa952ba7f163c4a11628f55a4df523b3ef846040518082815260200191505060405180910390a3600190505b92915050565b60058060000154908060010154905082565b60008073ffffffffffffffffffffffffffffffffffffffff168373ffffffffffffffffffffffffffffffffffffffff16141515156108f057600080fd5b610939600160003373ffffffffffffffffffffffffffffffffffffffff1673ffffffffffffffffffffffffffffffffffffffff1681526020019081526020016000205483610da0565b600160003373ffffffffffffffffffffffffffffffffffffffff1673ffffffffffffffffffffffffffffffffffffffff168152602001908152602001600020819055506109c5600160008573ffffffffffffffffffffffffffffffffffffffff1673ffffffffffffffffffffffffffffffffffffffff1681526020019081526020016000205483610db9565b600160008573ffffffffffffffffffffffffffffffffffffffff1673ffffffffffffffffffffffffffffffffffffffff168152602001908152602001600020819055508273ffffffffffffffffffffffffffffffffffffffff163373ffffffffffffffffffffffffffffffffffffffff167fddf252ad1be2c89b69c2b068fc378daa952ba7f163c4a11628f55a4df523b3ef846040518082815260200191505060405180910390a36001905092915050565b60046020528060005260406000206000915090508060000154908060010154905082565b80610aa5836105d4565b10151515610ab257600080fd5b6000600360008473ffffffffffffffffffffffffffffffffffffffff1673ffffffffffffffffffffffffffffffffffffffff16815260200190815260200160002060000154141515610b0357600080fd5b610b4c600160008473ffffffffffffffffffffffffffffffffffffffff1673ffffffffffffffffffffffffffffffffffffffff1681526020019081526020016000205482610da0565b600160008473ffffffffffffffffffffffffffffffffffffffff1673ffffffffffffffffffffffffffffffffffffffff16815260200190815260200160002081905550604080519081016040528082815260200142815250600360008473ffffffffffffffffffffffffffffffffffffffff1673ffffffffffffffffffffffffffffffffffffffff1681526020019081526020016000206000820151816000015560208201518160010155905050610c038261048e565b5050565b610c7260016000600260009054906101000a900473ffffffffffffffffffffffffffffffffffffffff1673ffffffffffffffffffffffffffffffffffffffff1673ffffffffffffffffffffffffffffffffffffffff1681526020019081526020016000205482610db9565b60016000600260009054906101000a900473ffffffffffffffffffffffffffffffffffffffff1673ffffffffffffffffffffffffffffffffffffffff1673ffffffffffffffffffffffffffffffffffffffff16815260200190815260200160002081905550505050565b610d25600160008573ffffffffffffffffffffffffffffffffffffffff1673ffffffffffffffffffffffffffffffffffffffff1681526020019081526020016000205482610db9565b600160008573ffffffffffffffffffffffffffffffffffffffff1673ffffffffffffffffffffffffffffffffffffffff16815260200190815260200160002081905550505050565b60008082840290506000841480610d8e5750828482811515610d8b57fe5b04145b1515610d9657fe5b8091505092915050565b6000828211151515610dae57fe5b818303905092915050565b6000808284019050838110158015610dd15750828110155b1515610dd957fe5b80915050929150505600a165627a7a72305820c901d63c5803a27052ff12409701ef06eb881cc335d53d4117ba8ef558f5c77a0029",
  "source": "pragma solidity ^0.4.22;\n\nimport \"./ConvertLib.sol\";\n\n// This is just a simple example of a coin-like contract.\n// It is not standards compatible and cannot be expected to talk to other\n// coin/token contracts. If you want to create a standards-compliant\n// token, see: https://github.com/ConsenSys/Tokens. Cheers!\n\ncontract SafeMath {\n\n  function safeMul(uint a, uint b) internal returns (uint) {\n    uint c = a * b;\n    assert(a == 0 || c / a == b);\n    return c;\n  }\n  function safeSub(uint a, uint b) internal returns (uint) {\n    assert(b <= a);\n    return a - b;\n  }\n  function safeAdd(uint a, uint b) internal returns (uint) {\n    uint c = a + b;\n    assert(c>=a && c>=b);\n    return c;\n  }\n\n}\n\ncontract ERC20 {\n    //function totalSupply() public constant returns (uint);\n    function balanceOf(address tokenOwner) public constant returns (uint balance);\n    //function allowance(address tokenOwner, address spender) public constant returns (uint remaining);\n    function transfer(address to, uint tokens) public returns (bool success);\n    //function approve(address spender, uint tokens) public returns (bool success);\n    //function transferFrom(address from, address to, uint tokens) public returns (bool success);\n\n    event Transfer(address indexed from, address indexed to, uint tokens);\n    //event Approval(address indexed tokenOwner, address indexed spender, uint tokens);\n}\n\ncontract TomCoin is ERC20, SafeMath {\n\tuint256 public totalSupply;\n\n\tmapping (address => uint) balances;\n\n\tevent Transfer(address indexed _from, address indexed _to, uint256 _value);\n\n\tconstructor() public {\n\t\tbalances[tx.origin] = 10000;\n\t\tbalances[manager] = 80000;\n\t}\n\n\tfunction sendCoin(address receiver, uint amount) public returns(bool sufficient) {\n\t\tif (balances[msg.sender] < amount) return false;\n\t\tbalances[msg.sender] -= amount;\n\t\tbalances[receiver] += amount;\n\t\temit Transfer(msg.sender, receiver, amount);\n\t\treturn true;\n\t}\n\n\tfunction balanceOfInEth(address _address) public view returns(uint){\n\t\treturn ConvertLib.convert(balanceOf(_address),2);\n\t}\n\n\tfunction balanceOf(address _address) public view returns(uint) {\n\t\treturn balances[_address];\n\t}\n\n  function transfer(address _to, uint256 _value) returns(bool success){\n    require(_to != address(0));\n\t\tbalances[msg.sender] = safeSub(balances[msg.sender], _value);\n    balances[_to] = safeAdd(balances[_to], _value);\n    emit Transfer(msg.sender, _to, _value);\n\n    return true;\n\t}\n\n  struct Withdrawal {\n    uint256 tokens;\n    uint256 time;\n  }\n\n  struct Price {\n    uint256 numerator;\n    uint256 denominator;\n  }\n\n\taddress public manager = 0x56c56111F9E7322D9170816a3366781fdf38a0Da;\n\n\n  mapping (address => Withdrawal) public withdrawals;\n  mapping (uint256 => Price) public prices;\n\n\tfunction requestWithdrawal(address _participant, uint _tokensToWithdraw){\n\t\trequire(balanceOf(_participant) >= _tokensToWithdraw);\n\t\trequire(withdrawals[_participant].tokens == 0);\n\t\tbalances[_participant] = safeSub(balances[_participant], _tokensToWithdraw);\n\t\twithdrawals[_participant] = Withdrawal({tokens: _tokensToWithdraw, time: now});\n    withdraw(_participant);\n\t}\n\n\tPrice public currentPrice;\n\n  function checkEthValue(uint256 amountTokensToWithdraw) returns (uint256 ethervalue) {\n\t\tcurrentPrice.numerator = 2;\n\t\tcurrentPrice.denominator = 1;\n    //require(amountTokensToWithdraw > 0 );\n    //require(balanceOf(msg.sender) >= amountTokensToWithdraw);\n    uint256 etherValue = safeMul(amountTokensToWithdraw, currentPrice.denominator) / currentPrice.numerator;\n    //require(manager.balance >= withdrawValue);\n    return uint256(50);\n  }\n\n  function withdraw(address participant) {\n    //address participant = msg.sender;\n    uint256 tokens = withdrawals[participant].tokens;\n\t\t//require(tokens > 0);\n\t\tuint256 requestTime = withdrawals[participant].time;\n\t\t//Price price = prices[requestTime];\n\t\tuint256 ethValue = checkEthValue(tokens);\n    //require(currentPrice.numerator > 0);\n\t\twithdrawals[participant].tokens = 0;\n\t\tif (manager.balance >= ethValue){\n\t\t\twithdraw_from_balance(participant, ethValue, tokens);\n\t\t}\n\t\telse {\n\t\t\twithdraw_error(participant, ethValue, tokens);\n\t\t}\n\t}\n\n\tfunction withdraw_from_balance(address _participant, uint256 _ethValue, uint256 _tokens) private{\n\t\tbalances[manager] = safeAdd(balances[manager], _tokens);\n\t\t//_participant.transfer(_ethValue);\n\n\t}\n\n\tfunction withdraw_error(address _participant, uint256 _ethValue, uint256 _tokens) private{\n\t\tbalances[_participant] = safeAdd(balances[_participant], _tokens);\n\t}\n}\n",
  "sourcePath": "/Users/Tommy/Documents/invictus/liquidation-contract-3/contracts/TomCoin.sol",
  "compiler": {
    "name": "solc",
    "version": "0.4.24+commit.e67f0147.Emscripten.clang"
  },
  "schemaVersion": "2.0.1",
  "updatedAt": "2018-06-29T18:26:31.290Z"
}